8=FIX.4.4|9=118|35=M8|49=VNMGW|56=99999|34=1|52=20190517 09:00:00.065|30001=STO|20004=G7|55=VN000000AGM6|20026=0.0|30541=0.0|20027=3|10=120|
8=FIX.4.4|9=115|35=f|49=VNMGW|56=99999|34=2|52=20190517 09:00:00.067|30001=STO|20004=G7|20005=AD2|20008=BE|55=VN000000AGR5|336=99|10=089|
8=FIX.4.4|9=1193|35=X|49=VNMGW|56=99999|34=3|52=20190517 09:00:00.068|30001=STO|20004=G7|336=99|55=VN000000AGR5|75=20190221|60=090000028|30521=0|30522=0|30523=0|30524=0|268=20|83=1|279=0|269=1|290=1|270=0.0|271=0|346=0|30271=0|83=2|279=0|269=0|290=1|270=0.0|271=0|346=0|30271=0|83=3|279=0|269=1|290=2|270=0.0|271=0|346=0|30271=0|83=4|279=0|269=0|290=2|270=0.0|271=0|346=0|30271=0|83=5|279=0|269=1|290=3|270=0.0|271=0|346=0|30271=0|83=6|279=0|269=0|290=3|270=0.0|271=0|346=0|30271=0|83=7|279=0|269=1|290=4|270=0.0|271=0|346=0|30271=0|83=8|279=0|269=0|290=4|270=0.0|271=0|346=0|30271=0|83=9|279=0|269=1|290=5|270=0.0|271=0|346=0|30271=0|83=10|279=0|269=0|290=5|270=0.0|271=0|346=0|30271=0|83=11|279=0|269=1|290=6|270=0.0|271=0|346=0|30271=0|83=12|279=0|269=0|290=6|270=0.0|271=0|346=0|30271=0|83=13|279=0|269=1|290=7|270=0.0|271=0|346=0|30271=0|83=14|279=0|269=0|290=7|270=0.0|271=0|346=0|30271=0|83=15|279=0|269=1|290=8|270=0.0|271=0|346=0|30271=0|83=16|279=0|269=0|290=8|270=0.0|271=0|346=0|30271=0|83=17|279=0|269=1|290=9|270=0.0|271=0|346=0|30271=0|83=18|279=0|269=0|290=9|270=0.0|271=0|346=0|30271=0|83=19|279=0|269=1|290=10|270=0.0|271=0|346=0|30271=0|83=20|279=0|269=0|290=10|270=0.0|271=0|346=0|30271=0|10=113|
8=FIX.4.4|9=109|35=f|49=VNMGW|56=99999|34=4|52=20190517 12:00:03.071|30001=STO|20004=T1|20005=AW9|55=VN000000AGR5|336=40|10=071|
8=FIX.4.4|9=121|35=M8|49=VNMGW|56=99999|34=5|52=20190517 15:05:00.181|30001=STO|20004=G3|55=VN000000AGR5|20026=0.0|30541=0.0|20027=3|10=016|
8=FIX.4.4|9=109|35=f|49=VNMGW|56=99999|34=6|52=20190517 20:20:23.071|30001=STO|20004=T1|20005=AW9|55=VN000000AGR5|336=40|10=071|
